{
  "contractName": "WebThreeYearTwo",
  "abi": [
    {
      "inputs": [],
      "stateMutability": "nonpayable",
      "type": "constructor"
    },
    {
      "anonymous": false,
      "inputs": [
        {
          "indexed": false,
          "internalType": "address",
          "name": "participantAddress",
          "type": "address"
        },
        {
          "indexed": false,
          "internalType": "uint8",
          "name": "grade",
          "type": "uint8"
        }
      ],
      "name": "gradeAdded",
      "type": "event"
    },
    {
      "anonymous": false,
      "inputs": [
        {
          "indexed": false,
          "internalType": "address",
          "name": "participantAddress",
          "type": "address"
        },
        {
          "indexed": false,
          "internalType": "string",
          "name": "firstName",
          "type": "string"
        },
        {
          "indexed": false,
          "internalType": "string",
          "name": "lastName",
          "type": "string"
        }
      ],
      "name": "participantAdded",
      "type": "event"
    },
    {
      "inputs": [
        {
          "internalType": "address",
          "name": "_participantAddress",
          "type": "address"
        },
        {
          "internalType": "string",
          "name": "_firstName",
          "type": "string"
        },
        {
          "internalType": "string",
          "name": "_lastName",
          "type": "string"
        },
        {
          "internalType": "string",
          "name": "_stack",
          "type": "string"
        }
      ],
      "name": "addParticipant",
      "outputs": [
        {
          "internalType": "bool",
          "name": "",
          "type": "bool"
        }
      ],
      "stateMutability": "nonpayable",
      "type": "function"
    },
    {
      "inputs": [
        {
          "internalType": "uint8",
          "name": "_grade",
          "type": "uint8"
        }
      ],
      "name": "gradeParticipant",
      "outputs": [
        {
          "internalType": "bool",
          "name": "",
          "type": "bool"
        }
      ],
      "stateMutability": "nonpayable",
      "type": "function"
    },
    {
      "inputs": [],
      "name": "participantCount",
      "outputs": [
        {
          "internalType": "uint256",
          "name": "",
          "type": "uint256"
        }
      ],
      "stateMutability": "view",
      "type": "function",
      "constant": true
    },
    {
      "inputs": [],
      "name": "participantId",
      "outputs": [
        {
          "internalType": "uint8",
          "name": "",
          "type": "uint8"
        }
      ],
      "stateMutability": "view",
      "type": "function",
      "constant": true
    },
    {
      "inputs": [
        {
          "internalType": "address",
          "name": "",
          "type": "address"
        }
      ],
      "name": "participants",
      "outputs": [
        {
          "internalType": "address",
          "name": "participantAddress",
          "type": "address"
        },
        {
          "internalType": "string",
          "name": "firstName",
          "type": "string"
        },
        {
          "internalType": "string",
          "name": "lastName",
          "type": "string"
        },
        {
          "internalType": "string",
          "name": "stack",
          "type": "string"
        },
        {
          "internalType": "bool",
          "name": "active",
          "type": "bool"
        },
        {
          "internalType": "uint8",
          "name": "grade",
          "type": "uint8"
        }
      ],
      "stateMutability": "view",
      "type": "function",
      "constant": true
    },
    {
      "inputs": [
        {
          "internalType": "address",
          "name": "",
          "type": "address"
        }
      ],
      "name": "yearmates",
      "outputs": [
        {
          "internalType": "uint256",
          "name": "year",
          "type": "uint256"
        },
        {
          "internalType": "uint256",
          "name": "numberOfParticipants",
          "type": "uint256"
        },
        {
          "internalType": "address",
          "name": "participantAddress",
          "type": "address"
        }
      ],
      "stateMutability": "view",
      "type": "function",
      "constant": true
    },
    {
      "inputs": [
        {
          "internalType": "uint256",
          "name": "_year",
          "type": "uint256"
        },
        {
          "internalType": "address",
          "name": "_participantAddress",
          "type": "address"
        },
        {
          "internalType": "string",
          "name": "_firstName",
          "type": "string"
        },
        {
          "internalType": "string",
          "name": "_lastName",
          "type": "string"
        },
        {
          "internalType": "string",
          "name": "_stack",
          "type": "string"
        }
      ],
      "name": "addYearMate",
      "outputs": [
        {
          "internalType": "bool",
          "name": "",
          "type": "bool"
        }
      ],
      "stateMutability": "nonpayable",
      "type": "function"
    }
  ],
  "bytecode": "0x608060405234801561001057600080fd5b5033600060016101000a81548173ffffffffffffffffffffffffffffffffffffffff021916908373ffffffffffffffffffffffffffffffffffffffff16021790555033600060016101000a81548173ffffffffffffffffffffffffffffffffffffffff021916908373ffffffffffffffffffffffffffffffffffffffff1602179055506000600281905550611126806100aa6000396000f3fe608060405234801561001057600080fd5b506004361061009a576000357c01000000000000000000000000000000000000000000000000000000009004806368bad9ff1161007857806368bad9ff146101245780637ef1cb1014610142578063b9b2270d14610172578063e710382b146101a25761009a565b806309e69ede1461009f578063362f04c0146100d457806357bf73cb146100f2575b600080fd5b6100b960048036038101906100b491906109e5565b6101d2565b6040516100cb96959493929190610c7e565b60405180910390f35b6100dc6103e0565b6040516100e99190610d58565b60405180910390f35b61010c600480360381019061010791906109e5565b6103e6565b60405161011b93929190610d73565b60405180910390f35b61012c610430565b6040516101399190610daa565b60405180910390f35b61015c60048036038101906101579190610ab9565b610441565b6040516101699190610d1d565b60405180910390f35b61018c60048036038101906101879190610b78565b61053f565b6040516101999190610d1d565b60405180910390f35b6101bc60048036038101906101b79190610a0e565b610642565b6040516101c99190610d1d565b60405180910390f35b60016020528060005260406000206000915090508060000160009054906101000a900473ffffffffffffffffffffffffffffffffffffffff169080600101805461021b90610f5b565b80601f016020809104026020016040519081016040528092919081815260200182805461024790610f5b565b80156102945780601f1061026957610100808354040283529160200191610294565b820191906000526020600020905b81548152906001019060200180831161027757829003601f168201915b5050505050908060020180546102a990610f5b565b80601f01602080910402602001604051908101604052809291908181526020018280546102d590610f5b565b80156103225780601f106102f757610100808354040283529160200191610322565b820191906000526020600020905b81548152906001019060200180831161030557829003601f168201915b50505050509080600301805461033790610f5b565b80601f016020809104026020016040519081016040528092919081815260200182805461036390610f5b565b80156103b05780601f10610385576101008083540402835291602001916103b0565b820191906000526020600020905b81548152906001019060200180831161039357829003601f168201915b5050505050908060040160009054906101000a900460ff16908060040160019054906101000a900460ff16905086565b60025481565b60036020528060005260406000206000915090508060000154908060010154908060020160009054906101000a900473ffffffffffffffffffffffffffffffffffffffff16905083565b60008054906101000a900460ff1681565b600060016002546104529190610e37565b600281905550604051806060016040528087815260200160025481526020018673ffffffffffffffffffffffffffffffffffffffff16815250600360008773ffffffffffffffffffffffffffffffffffffffff1673ffffffffffffffffffffffffffffffffffffffff168152602001908152602001600020600082015181600001556020820151816001015560408201518160020160006101000a81548173ffffffffffffffffffffffffffffffffffffffff021916908373ffffffffffffffffffffffffffffffffffffffff16021790555090505061053485858585610642565b905095945050505050565b60006105a6600160003373ffffffffffffffffffffffffffffffffffffffff1673ffffffffffffffffffffffffffffffffffffffff16815260200190815260200160002060040160019054906101000a900460ff168360ff1661088590919063ffffffff16565b600160003373ffffffffffffffffffffffffffffffffffffffff1673ffffffffffffffffffffffffffffffffffffffff16815260200190815260200160002060040160016101000a81548160ff021916908360ff1602179055507f545579d4e722221b0726ab049cc1612e1c75edabeb615a4b65ef8f29a9128ed43383604051610631929190610cf4565b60405180910390a160019050919050565b60008060019054906101000a900473ffffffffffffffffffffffffffffffffffffffff1673ffffffffffffffffffffffffffffffffffffffff163373ffffffffffffffffffffffffffffffffffffffff16146106d3576040517f08c379a00000000000000000000000000000000000000000000000000000000081526004016106ca90610d38565b60405180910390fd5b6040518060c001604052808673ffffffffffffffffffffffffffffffffffffffff168152602001858152602001848152602001838152602001600115158152602001600060ff16815250600160008773ffffffffffffffffffffffffffffffffffffffff1673ffffffffffffffffffffffffffffffffffffffff16815260200190815260200160002060008201518160000160006101000a81548173ffffffffffffffffffffffffffffffffffffffff021916908373ffffffffffffffffffffffffffffffffffffffff16021790555060208201518160010190805190602001906107bf92919061089b565b5060408201518160020190805190602001906107dc92919061089b565b5060608201518160030190805190602001906107f992919061089b565b5060808201518160040160006101000a81548160ff02191690831515021790555060a08201518160040160016101000a81548160ff021916908360ff1602179055509050507f018bb8e93d810afcc6ac4c5255c8790f20733ac00f869c2cf541376cb9ad1ff285858560405161087193929190610c39565b60405180910390a160019050949350505050565b600081836108939190610e8d565b905092915050565b8280546108a790610f5b565b90600052602060002090601f0160209004810192826108c95760008555610910565b82601f106108e257805160ff1916838001178555610910565b82800160010185558215610910579182015b8281111561090f5782518255916020019190600101906108f4565b5b50905061091d9190610921565b5090565b5b8082111561093a576000816000905550600101610922565b5090565b600061095161094c84610dea565b610dc5565b90508281526020810184848401111561096957600080fd5b610974848285610f19565b509392505050565b60008135905061098b816110ab565b92915050565b600082601f8301126109a257600080fd5b81356109b284826020860161093e565b91505092915050565b6000813590506109ca816110c2565b92915050565b6000813590506109df816110d9565b92915050565b6000602082840312156109f757600080fd5b6000610a058482850161097c565b91505092915050565b60008060008060808587031215610a2457600080fd5b6000610a328782880161097c565b945050602085013567ffffffffffffffff811115610a4f57600080fd5b610a5b87828801610991565b935050604085013567ffffffffffffffff811115610a7857600080fd5b610a8487828801610991565b925050606085013567ffffffffffffffff811115610aa157600080fd5b610aad87828801610991565b91505092959194509250565b600080600080600060a08688031215610ad157600080fd5b6000610adf888289016109bb565b9550506020610af08882890161097c565b945050604086013567ffffffffffffffff811115610b0d57600080fd5b610b1988828901610991565b935050606086013567ffffffffffffffff811115610b3657600080fd5b610b4288828901610991565b925050608086013567ffffffffffffffff811115610b5f57600080fd5b610b6b88828901610991565b9150509295509295909350565b600060208284031215610b8a57600080fd5b6000610b98848285016109d0565b91505092915050565b610baa81610ec4565b82525050565b610bb981610ed6565b82525050565b6000610bca82610e1b565b610bd48185610e26565b9350610be4818560208601610f28565b610bed8161104b565b840191505092915050565b6000610c05602a83610e26565b9150610c108261105c565b604082019050919050565b610c2481610f02565b82525050565b610c3381610f0c565b82525050565b6000606082019050610c4e6000830186610ba1565b8181036020830152610c608185610bbf565b90508181036040830152610c748184610bbf565b9050949350505050565b600060c082019050610c936000830189610ba1565b8181036020830152610ca58188610bbf565b90508181036040830152610cb98187610bbf565b90508181036060830152610ccd8186610bbf565b9050610cdc6080830185610bb0565b610ce960a0830184610c2a565b979650505050505050565b6000604082019050610d096000830185610ba1565b610d166020830184610c2a565b9392505050565b6000602082019050610d326000830184610bb0565b92915050565b60006020820190508181036000830152610d5181610bf8565b9050919050565b6000602082019050610d6d6000830184610c1b565b92915050565b6000606082019050610d886000830186610c1b565b610d956020830185610c1b565b610da26040830184610ba1565b949350505050565b6000602082019050610dbf6000830184610c2a565b92915050565b6000610dcf610de0565b9050610ddb8282610f8d565b919050565b6000604051905090565b600067ffffffffffffffff821115610e0557610e0461101c565b5b610e0e8261104b565b9050602081019050919050565b600081519050919050565b600082825260208201905092915050565b6000610e4282610f02565b9150610e4d83610f02565b9250827fffffffffffffffffffffffffffffffffffffffffffffffffffffffffffffffff03821115610e8257610e81610fbe565b5b828201905092915050565b6000610e9882610f0c565b9150610ea383610f0c565b92508260ff03821115610eb957610eb8610fbe565b5b828201905092915050565b6000610ecf82610ee2565b9050919050565b60008115159050919050565b600073ffffffffffffffffffffffffffffffffffffffff82169050919050565b6000819050919050565b600060ff82169050919050565b82818337600083830152505050565b60005b83811015610f46578082015181840152602081019050610f2b565b83811115610f55576000848401525b50505050565b60006002820490506001821680610f7357607f821691505b60208210811415610f8757610f86610fed565b5b50919050565b610f968261104b565b810181811067ffffffffffffffff82111715610fb557610fb461101c565b5b80604052505050565b7f4e487b7100000000000000000000000000000000000000000000000000000000600052601160045260246000fd5b7f4e487b7100000000000000000000000000000000000000000000000000000000600052602260045260246000fd5b7f4e487b7100000000000000000000000000000000000000000000000000000000600052604160045260246000fd5b6000601f19601f8301169050919050565b7f4f6e6c792061646d696e2063616e2063616c6c20746869732066756e6374696f60008201527f6e2c20676f206177617900000000000000000000000000000000000000000000602082015250565b6110b481610ec4565b81146110bf57600080fd5b50565b6110cb81610f02565b81146110d657600080fd5b50565b6110e281610f0c565b81146110ed57600080fd5b5056fea2646970667358221220c7536e6aee1244128107a7c76852bd656191dd2b800335e8bf7c72f9612df76164736f6c63430008020033",
  "immutableReferences": {},
  "source": "// SPDX-License-Identifier: GPL-3.0\npragma solidity ^0.8.0;\nimport \"./WebThreeCohortFor.sol\";\n\ncontract WebThreeYearTwo is WebThreeCohortFour{\n    uint256 public participantCount;\n\n    struct YearMate{ \n        uint256 year;\n        uint256 numberOfParticipants;\n        address participantAddress;\n    }\n    \n    mapping(address => YearMate) public yearmates;\n\n    // //modifier\n    // modifier onlyAdmin {\n    //     require( msg.sender==admin, \"Only admin can call this function, go away\");\n    //     _;\n    // }\n    \n    constructor(){\n        admin = msg.sender;\n        participantCount = 0;\n    } \n\n    function addYearMate (\n        uint256 _year, \n        address _participantAddress, \n        string memory _firstName, \n        string memory _lastName, \n        string memory _stack\n        ) public returns (bool){\n\n        participantCount = participantCount+1;\n        yearmates[_participantAddress] = YearMate(_year, participantCount, _participantAddress);\n        return super.addParticipant(_participantAddress, _firstName, _lastName, _stack);\n    }\n}",
  "sourcePath": "/home/bel-inda/projects/Web3Bridge/Cohort4Exercises/InheritanceAbstractContractsAndInterfaces/contracts/WebThreeYearTwo.sol",
  "compiler": {
    "name": "solc",
    "version": "0.8.2+commit.661d1103.Linux.g++"
  },
  "schemaVersion": "3.2.5",
  "updatedAt": "2021-03-31T19:18:05.931Z",
  "networkType": "ethereum",
  "devdoc": {
    "kind": "dev",
    "methods": {},
    "version": 1
  },
  "userdoc": {
    "kind": "user",
    "methods": {},
    "version": 1
  }
}