{
  "contractName": "WebThreeCohortFour",
  "abi": [
    {
      "inputs": [],
      "stateMutability": "nonpayable",
      "type": "constructor"
    },
    {
      "anonymous": false,
      "inputs": [
        {
          "indexed": false,
          "internalType": "address",
          "name": "participantAddress",
          "type": "address"
        },
        {
          "indexed": false,
          "internalType": "uint8",
          "name": "grade",
          "type": "uint8"
        }
      ],
      "name": "gradeAdded",
      "type": "event"
    },
    {
      "anonymous": false,
      "inputs": [
        {
          "indexed": false,
          "internalType": "address",
          "name": "participantAddress",
          "type": "address"
        },
        {
          "indexed": false,
          "internalType": "string",
          "name": "firstName",
          "type": "string"
        },
        {
          "indexed": false,
          "internalType": "string",
          "name": "lastName",
          "type": "string"
        }
      ],
      "name": "participantAdded",
      "type": "event"
    },
    {
      "inputs": [],
      "name": "participantId",
      "outputs": [
        {
          "internalType": "uint8",
          "name": "",
          "type": "uint8"
        }
      ],
      "stateMutability": "view",
      "type": "function"
    },
    {
      "inputs": [
        {
          "internalType": "address",
          "name": "",
          "type": "address"
        }
      ],
      "name": "participants",
      "outputs": [
        {
          "internalType": "address",
          "name": "participantAddress",
          "type": "address"
        },
        {
          "internalType": "string",
          "name": "firstName",
          "type": "string"
        },
        {
          "internalType": "string",
          "name": "lastName",
          "type": "string"
        },
        {
          "internalType": "string",
          "name": "stack",
          "type": "string"
        },
        {
          "internalType": "bool",
          "name": "active",
          "type": "bool"
        },
        {
          "internalType": "uint8",
          "name": "grade",
          "type": "uint8"
        }
      ],
      "stateMutability": "view",
      "type": "function"
    },
    {
      "inputs": [
        {
          "internalType": "address",
          "name": "_participantAddress",
          "type": "address"
        },
        {
          "internalType": "string",
          "name": "_firstName",
          "type": "string"
        },
        {
          "internalType": "string",
          "name": "_lastName",
          "type": "string"
        },
        {
          "internalType": "string",
          "name": "_stack",
          "type": "string"
        }
      ],
      "name": "addParticipant",
      "outputs": [
        {
          "internalType": "bool",
          "name": "",
          "type": "bool"
        }
      ],
      "stateMutability": "nonpayable",
      "type": "function"
    },
    {
      "inputs": [
        {
          "internalType": "uint8",
          "name": "_grade",
          "type": "uint8"
        }
      ],
      "name": "gradeParticipant",
      "outputs": [
        {
          "internalType": "bool",
          "name": "",
          "type": "bool"
        }
      ],
      "stateMutability": "nonpayable",
      "type": "function"
    }
  ],
  "bytecode": "0x608060405234801561001057600080fd5b5033600060016101000a81548173ffffffffffffffffffffffffffffffffffffffff021916908373ffffffffffffffffffffffffffffffffffffffff160217905550610d7b806100616000396000f3fe608060405234801561001057600080fd5b5060043610610069576000357c01000000000000000000000000000000000000000000000000000000009004806309e69ede1461006e57806368bad9ff146100a3578063b9b2270d146100c1578063e710382b146100f1575b600080fd5b610088600480360381019061008391906107d1565b610121565b60405161009a9695949392919061099c565b60405180910390f35b6100ab61032f565b6040516100b89190610a76565b60405180910390f35b6100db60048036038101906100d691906108a5565b610340565b6040516100e89190610a3b565b60405180910390f35b61010b600480360381019061010691906107fa565b610443565b6040516101189190610a3b565b60405180910390f35b60016020528060005260406000206000915090508060000160009054906101000a900473ffffffffffffffffffffffffffffffffffffffff169080600101805461016a90610bc7565b80601f016020809104026020016040519081016040528092919081815260200182805461019690610bc7565b80156101e35780601f106101b8576101008083540402835291602001916101e3565b820191906000526020600020905b8154815290600101906020018083116101c657829003601f168201915b5050505050908060020180546101f890610bc7565b80601f016020809104026020016040519081016040528092919081815260200182805461022490610bc7565b80156102715780601f1061024657610100808354040283529160200191610271565b820191906000526020600020905b81548152906001019060200180831161025457829003601f168201915b50505050509080600301805461028690610bc7565b80601f01602080910402602001604051908101604052809291908181526020018280546102b290610bc7565b80156102ff5780601f106102d4576101008083540402835291602001916102ff565b820191906000526020600020905b8154815290600101906020018083116102e257829003601f168201915b5050505050908060040160009054906101000a900460ff16908060040160019054906101000a900460ff16905086565b60008054906101000a900460ff1681565b60006103a7600160003373ffffffffffffffffffffffffffffffffffffffff1673ffffffffffffffffffffffffffffffffffffffff16815260200190815260200160002060040160019054906101000a900460ff168360ff1661068690919063ffffffff16565b600160003373ffffffffffffffffffffffffffffffffffffffff1673ffffffffffffffffffffffffffffffffffffffff16815260200190815260200160002060040160016101000a81548160ff021916908360ff1602179055507f545579d4e722221b0726ab049cc1612e1c75edabeb615a4b65ef8f29a9128ed43383604051610432929190610a12565b60405180910390a160019050919050565b60008060019054906101000a900473ffffffffffffffffffffffffffffffffffffffff1673ffffffffffffffffffffffffffffffffffffffff163373ffffffffffffffffffffffffffffffffffffffff16146104d4576040517f08c379a00000000000000000000000000000000000000000000000000000000081526004016104cb90610a56565b60405180910390fd5b6040518060c001604052808673ffffffffffffffffffffffffffffffffffffffff168152602001858152602001848152602001838152602001600115158152602001600060ff16815250600160008773ffffffffffffffffffffffffffffffffffffffff1673ffffffffffffffffffffffffffffffffffffffff16815260200190815260200160002060008201518160000160006101000a81548173ffffffffffffffffffffffffffffffffffffffff021916908373ffffffffffffffffffffffffffffffffffffffff16021790555060208201518160010190805190602001906105c092919061069c565b5060408201518160020190805190602001906105dd92919061069c565b5060608201518160030190805190602001906105fa92919061069c565b5060808201518160040160006101000a81548160ff02191690831515021790555060a08201518160040160016101000a81548160ff021916908360ff1602179055509050507f018bb8e93d810afcc6ac4c5255c8790f20733ac00f869c2cf541376cb9ad1ff285858560405161067293929190610957565b60405180910390a160019050949350505050565b600081836106949190610b03565b905092915050565b8280546106a890610bc7565b90600052602060002090601f0160209004810192826106ca5760008555610711565b82601f106106e357805160ff1916838001178555610711565b82800160010185558215610711579182015b828111156107105782518255916020019190600101906106f5565b5b50905061071e9190610722565b5090565b5b8082111561073b576000816000905550600101610723565b5090565b600061075261074d84610ab6565b610a91565b90508281526020810184848401111561076a57600080fd5b610775848285610b85565b509392505050565b60008135905061078c81610d17565b92915050565b600082601f8301126107a357600080fd5b81356107b384826020860161073f565b91505092915050565b6000813590506107cb81610d2e565b92915050565b6000602082840312156107e357600080fd5b60006107f18482850161077d565b91505092915050565b6000806000806080858703121561081057600080fd5b600061081e8782880161077d565b945050602085013567ffffffffffffffff81111561083b57600080fd5b61084787828801610792565b935050604085013567ffffffffffffffff81111561086457600080fd5b61087087828801610792565b925050606085013567ffffffffffffffff81111561088d57600080fd5b61089987828801610792565b91505092959194509250565b6000602082840312156108b757600080fd5b60006108c5848285016107bc565b91505092915050565b6108d781610b3a565b82525050565b6108e681610b4c565b82525050565b60006108f782610ae7565b6109018185610af2565b9350610911818560208601610b94565b61091a81610cb7565b840191505092915050565b6000610932602a83610af2565b915061093d82610cc8565b604082019050919050565b61095181610b78565b82525050565b600060608201905061096c60008301866108ce565b818103602083015261097e81856108ec565b9050818103604083015261099281846108ec565b9050949350505050565b600060c0820190506109b160008301896108ce565b81810360208301526109c381886108ec565b905081810360408301526109d781876108ec565b905081810360608301526109eb81866108ec565b90506109fa60808301856108dd565b610a0760a0830184610948565b979650505050505050565b6000604082019050610a2760008301856108ce565b610a346020830184610948565b9392505050565b6000602082019050610a5060008301846108dd565b92915050565b60006020820190508181036000830152610a6f81610925565b9050919050565b6000602082019050610a8b6000830184610948565b92915050565b6000610a9b610aac565b9050610aa78282610bf9565b919050565b6000604051905090565b600067ffffffffffffffff821115610ad157610ad0610c88565b5b610ada82610cb7565b9050602081019050919050565b600081519050919050565b600082825260208201905092915050565b6000610b0e82610b78565b9150610b1983610b78565b92508260ff03821115610b2f57610b2e610c2a565b5b828201905092915050565b6000610b4582610b58565b9050919050565b60008115159050919050565b600073ffffffffffffffffffffffffffffffffffffffff82169050919050565b600060ff82169050919050565b82818337600083830152505050565b60005b83811015610bb2578082015181840152602081019050610b97565b83811115610bc1576000848401525b50505050565b60006002820490506001821680610bdf57607f821691505b60208210811415610bf357610bf2610c59565b5b50919050565b610c0282610cb7565b810181811067ffffffffffffffff82111715610c2157610c20610c88565b5b80604052505050565b7f4e487b7100000000000000000000000000000000000000000000000000000000600052601160045260246000fd5b7f4e487b7100000000000000000000000000000000000000000000000000000000600052602260045260246000fd5b7f4e487b7100000000000000000000000000000000000000000000000000000000600052604160045260246000fd5b6000601f19601f8301169050919050565b7f4f6e6c792061646d696e2063616e2063616c6c20746869732066756e6374696f60008201527f6e2c20676f206177617900000000000000000000000000000000000000000000602082015250565b610d2081610b3a565b8114610d2b57600080fd5b50565b610d3781610b78565b8114610d4257600080fd5b5056fea26469706673582212207c87644909f96aa7fd92a129470e848eb1e1ec158f2db94d7fa048abf78b22d264736f6c63430008020033",
  "immutableReferences": {},
  "source": "// SPDX-License-Identifier: GPL-3.0\npragma solidity ^0.8.0;\nimport './SafeMath.sol';\n\ncontract WebThreeCohortFour{\n    using SafeMath for uint8;\n    \n    //state variables\n    uint8 public participantId;\n    address admin;\n    \n    bool emergency;\n    \n    struct CohortFour{ \n        address participantAddress; \n        string firstName;\n        string lastName;\n        string stack;\n        bool active;\n        uint8 grade;\n    }\n    \n    mapping(address => CohortFour) public participants;\n    \n    //events\n    event participantAdded(\n        address participantAddress, \n        string firstName, \n        string lastName\n    );\n    \n    event gradeAdded(\n        address participantAddress,\n        uint8 grade\n    );\n    \n    \n    //modifier\n    modifier onlyAdmin {\n        require( msg.sender==admin, \"Only admin can call this function, go away\");\n        _;\n    }\n    \n    constructor(){\n        admin = msg.sender;\n    }\n    \n    function addParticipant(\n        address _participantAddress, \n        string memory _firstName, \n        string memory _lastName, \n        string memory _stack\n        ) public onlyAdmin returns(bool)\n        {\n            \n            participants[_participantAddress] = CohortFour(_participantAddress, _firstName, _lastName, _stack, true, 0);\n            emit participantAdded(_participantAddress, _firstName, _lastName);\n            return true;\n        }\n        \n    function gradeParticipant(uint8 _grade) public returns(bool)\n    {\n        participants[msg.sender].grade = _grade.add(participants[msg.sender].grade);\n        emit gradeAdded(msg.sender, _grade);\n        return true;\n    }\n    \n    // function deactivateParticipant{}\n    \n    // function payQuizBounty{}\n    \n    // function updateStack{}\n}\n",
  "sourcePath": "/home/bel-inda/projects/Web3Bridge/Cohort4Exercises/InheritanceAbstractContractsAndInterfaces/contracts/WebThreeCohortFor.sol",
  "compiler": {
    "name": "solc",
    "version": "0.8.2+commit.661d1103.Linux.g++"
  },
  "schemaVersion": "3.2.5",
  "updatedAt": "2021-03-31T18:33:46.722Z",
  "devdoc": {
    "kind": "dev",
    "methods": {},
    "version": 1
  },
  "userdoc": {
    "kind": "user",
    "methods": {},
    "version": 1
  }
}